:020000040800F2
:1000000000500020B9E7000865E80008B9D10008F1
:1000100065E8000865E8000865E8000800000000E1
:1000200000000000000000000000000065E800087B
:1000300065E800080000000065E80008A9D1000894
:1000400065E8000865E8000865E8000865E800085C
:1000500065E8000865E8000865E80008F1D00008D8
:1000600065E8000865E8000865E8000865E800083C
:1000700065E8000865E80008B5D0000865E80008F4
:10008000F5D0000865E8000865E8000865E80008A4
:1000900065E8000865E8000865E80008EDD000089C
:1000A00065E8000865E8000865E8000801D0000878
:1000B000F9CF0008EDCF0008E1CF000831D10008EA
:1000C00029D100082DD1000825D1000865E80008D5
:1000D00065E8000879D000080DD0000865E8000840
:1000E00035D1000865E8000865E800080000000058
:1000F0000000000000000000000000000000000000
:0C01000000000000000000005FF808F1A3
:100110002DE9F04F744B754DA1B02B6000236B603F
:1001200007F0FAF918B908F08BFA07F017FA0CF093
:1001300007FC00230A936E4C0B930C934FF4E013CF
:100140000D9323686B4943F480338A7B2360A36952
:1001500043F01003A361236803F400330B930A9B5D
:1001600001330A930B9B1BB90A9BB3F5A06FF2D125
:1001700021685F4B11F4003101D0022315E01868AB
:1001800040F0010018600A91236803F002030B930A
:100190000A9B01330A930B9B1BB90A9BB3F5A06F13
:1001A000F2D12368990739D501230C93524B534F51
:1001B000196841F010011960196821F003011960F4
:1001C000196841F0020119606368636063686360E5
:1001D000636843F480636360494B1968043B21F012
:1001E0007041596047493960616821F47C11616050
:1001F000596841F000415960D96821F40041D96043
:100200009B681B0449BF404B4FF4E0133B604FF425
:1002100080130D930C9B012B01D117E0FEE7022BFD
:1002200018D16AB10D9BB3F5801F02D14FF4A01312
:1002300005E00D9BB3F5E01F02D14FF400130D93C1
:1002400062680D9B134343F4803302E0636843F418
:1002500060136360236843F0807323602268244B3B
:100260009601FBD55A6822F003025A605A6842F0A0
:1002700002025A6063681E4A03F00C03082B0793BE
:10028000F8D15168214B01F00C01042903D0082951
:1002900004D01C4A00E03A681A6011E051685068C6
:1002A000C1F38341C00301F1020101D4184A05E002
:1002B000526812F4003F3A6818BF5208514319605F
:1002C0006268DFF85080C2F303123A4492F804B037
:1002D0001A6822FA0BFB0B4AC3F800B03B68934242
:1002E0001AD101231CE000BFE326000864070020A8
:1002F00000100240601E0020002002401400002078
:100300000410014000127A00001BB700A400002076
:1003100000093D000B2600209C4A934202D1022393
:1003200088F800309A4B9B4A20AEDA60A269DFF869
:10033000909242F00102A261626A4FF0000A42F01C
:1003400080726262A269944842F01C02A2614FF678
:10035000FF7226F82C2D314603938DF856A002F03B
:10036000E3FE4846314602F0DFFE8C48314602F09B
:10037000DBFE8B4A3046516841F00071516006F057
:1003800037FA159A8749039BB2FBF1F24FF47A7161
:10039000AA60BBFBF1FB844A0BF1FF315160F021F5
:1003A00083F823100723C2F808A06420136002F02A
:1003B0005CF97E4B0FCB86E80F00A369159843F0DC
:1003C0000803A361A36916A943F00803A3610823E6
:1003D000C9F810301023C9F8103002F0A5FE1798A4
:1003E00018A902F0A1FE98F800304FF48052012BBA
:1003F0008CBF102314238DF856304FF002038DF874
:100400005730A369ADF8542043F00403A3618CBFB7
:100410004FF00109D1466048314602F085FE644B39
:10042000B9F1000F01D0634A00E0634A00201A606E
:1004300002F025F9614B93E80300A36986E8030005
:1004400043F0080316A9A361159802F06DFE09F0A8
:1004500009FB9F238DF84030322000238DF8413076
:100460008DF842308DF8433002F0FFF8544B4FF4D2
:1004700080525A61A3F5544310AA9B8905204FF47A
:100480007A7331469146013823D01AB192F800E0D0
:10049000013208E04FF0FF0E05E003F1FF3C1FFAC8
:1004A0008CFC93B16346DFF828C1BCF808A01AF0B1
:1004B000020FF2D0ACF80CE0DFF814E1BEF808C08F
:1004C0001CF0010F00F077817EE1AB8901339BB214
:1004D000AB81DFF8ECA04FF4805BCAF810B09DF858
:1004E00056209DF85530120242EA03429DF85730DB
:1004F0001A43344B9A4212D0CAF814B0F5200BF0CC
:10050000EBFBFF200BF0E8FB7028CAF810B006D117
:1005100098F80030022B02D12B4B03221A7098F866
:1005200000A0BAF1030F02D0012008F063FB2749B5
:10053000DFF8A080D1F808B008F10E000BF40063DA
:10054000069310231A460021039310F07AFB039BB5
:100550000021ADF84030042302228DF84310AB7324
:10056000072101231BF4004F8DF842202B7469747E
:1005700032D0122088F8123088F8133088F81430FE
:1005800088F81510ADF84000904626E0001BB70033
:1005900000ED00E00005FA050008014000100140F0
:1005A0000000014040420F0010E000E05C33010811
:1005B0001026002099200008AD2000086C330108A7
:1005C000000C0140152020000B260020601E00209A
:1005D00000380040640700209846BAF1010F11D995
:1005E000BDF84030012243F02003ADF84030052330
:1005F000AB752A7608F10103072285F817806A7621
:100600005FFA83F88348494606F044F9069B93B1A4
:10061000022381484946ADF8403006F03BF90923F2
:100620000122AB762A7708F10103072285F81B80A7
:100630006A775FFA83F86369784843F0010363617E
:10064000A369764D43F40073A36106F0CFF9744BB0
:1006500000241593734BB8F1010F16930CBF23467A
:1006600080231A934FF480731B934FF480631C9381
:10067000202331461D9328464FF400531E931794B0
:10068000CDF8608019941F9406F092F92B68B8F1A8
:10069000010F43F001032B60634B98BF00215A68A0
:1006A00088BF012122F4702222F4807242EA0122E2
:1006B0005A6099685D4A20460A4042F4602242F03E
:1006C00002029A60D96A08F1FF3221F47001D2B2B5
:1006D00041EA0252DA620123554A11188C78002C43
:1006E00051D0825C5C1C092ACE78E4B24E4910D904
:1006F000A2F10A0505EB45054FF0070E0EFA05FEBF
:10070000AE40D1F80CC02CEA0E0E4EEA0605CD60C4
:100710000DE002EB42054FF0070E0EFA05FEAE406B
:10072000D1F810C02CEA0E0E4EEA06050D61062B1C
:100730003D490CD8013B03EB83031F259D409A40A4
:100740004E6B26EA050545EA02034B631CE00C2BC1
:100750000CD8073B03EB83031F259D409A400E6B8B
:1007600026EA050545EA02030B630DE00D3B03EBAA
:1007700083031F259D409A40CE6A26EA050545EA77
:100780000203CB6200E01C460430102801D023464F
:10079000A2E7254B9A6842F480729A609A6842F008
:1007A00001029A609A6842F008029A6099681E4AAB
:1007B000090714D5FAE703F1FF3E1FFA8EFE002B5E
:1007C0003FF483AE734677E6BEF80CE01FFA8EFE68
:1007D00000293FF458AE81F800E0013153E69368F8
:1007E00043F004039360104A936813F00403FAD1B2
:1007F000916841F4A00191600E4AB2F8E600E0B9B8
:10080000B2F9E830C3B9B2F9EA30D3F1010338BF25
:10081000002312E000080140000C014008000240E3
:100820004C2401408207002000240140FDF7F1FF25
:1008300072070020601E0020034613F0010340F001
:100840008E803B7500B20CF01FFEADA3D3E90023F0
:100850000CF080FE0DF0D8F8AB490646B1F9E8007F
:100860000CF012FEA6A3D3E900230CF073FE0DF0EA
:10087000CBF8A54A0546B2F9EA000CF005FEA0A3A4
:10088000D3E900230CF066FE0DF0BEF804463046B6
:1008900010F006FC0746304610F076FC80462846ED
:1008A00010F0FEFB0646284610F06EFC054620467A
:1008B00010F0F6FB8246204610F066FC3946814671
:1008C00050460DF0FFF93946834648460DF0FAF9D7
:1008D0005146069040460DF0F5F9494608904046CD
:1008E0000DF0F0F93146099050460DF0EBF9874CC8
:1008F0004946A06206F100400DF0E4F92946E062A5
:10090000256308980DF0DEF9014606980DF0D2F83F
:100910002946606309980DF0D5F9014658460DF057
:10092000C7F83146A06308F100400DF0CBF9294625
:10093000E06358460DF0C6F9014609980DF0B8F885
:100940002946206406980DF0BDF9014608980DF07F
:10095000B1F83946606430460DF0B4F9A0646A49D4
:100960008B689B0363D5142001F07FFEAE2008F056
:1009700099FAA42008F096FA322001F076FE2020A1
:1009800008F090FA022008F08DFAA12008F08AFA07
:10099000C82008F087FAA62008F084FA812008F021
:1009A00081FAAF2008F07EFA142001F05EFEAF203D
:1009B00008F078FA142001F058FEA62008F072FA28
:1009C000AE2008F06FFA202008F06CFA002008F042
:1009D00069FAB02008F066FA402008F063FA0020B7
:1009E00008F060FA102008F05DFA4FF48064013CD2
:1009F0000020A4B208F038FA002CF8D1812008F0C9
:100A000051FAC82008F04EFA404DAF2008F04AFADB
:100A10003F4B21460C2205F15000EB6410F011F918
:100A20000BF07EF901F0FCFD3A4B0344AB653A4B09
:100A300000211A68984642F00E021A60324A374B7B
:100A4000B2F8EE9092F8ED60354A304D1268B2F887
:100A500052B0344A1170344992460F78A3F10C0217
:100A6000012F98BF1346EB6508F0ACFB0446002845
:100A700000F0FB822D4B2E4AB9F1BB0F1A602D4AB4
:100A80005A602D4ADA6001D9012312E0B9F1610FF1
:100A900001D9022311E0B9F1290F01D9032308E09C
:100AA000B9F1130F01D9042307E0B9F1090F03D9F4
:100AB0000523224A537502E0062320494B75012382
:100AC0008AF80030DFF87890002389F800301A4661
:100AD000092E00F2EF80DFE816F0350035005700F0
:100AE000B200D400ED00ED00ED00ED000A00D8F8F2
:100AF000003023F00203C8F80030DBE0AFF30080E1
:100B0000399D52A246DF913F601E002064070020FD
:100B10006E1F0020404B4C003C0200205033010867
:100B2000DC030020F60300200B260020E003002059
:100B300099BA00088791000890C1793D14000020FF
:100B40005E040020012F23D84FF0000A20AB03F8E9
:100B50002C2D53205146012208F016FAB0B19DF811
:100B60005430E52B12D1844B844A85F860A01A607A
:100B7000834A5A6054B10423012289F80030814B22
:100B800096421A7002D195E0012F01D87E4B00E009
:100B90007E4BDFF81CA2EB6508F014FB00284ED05A
:100BA000062115AB68200A4608F0EEF99DF857308B
:100BB0009DF859C003F001035B000CF0010C43EAFF
:100BC0008C0C9DF8553003F001035CEA030C08D04F
:100BD000BCF1010F01D100231AE0BCF1020F0FD1CB
:100BE00015E010AB68200C210122CDF810C008F0F0
:100BF000CBF99DF84030DDF810C013F00F0301D1A0
:100C0000052033E2042B02D18AF861C002E00123FF
:100C10008AF86130584B5E4A1A605E4A5A6095F80D
:100C20006120002A14BF6E226F221A72554B0222D5
:100C30001A7096424FF0010389F800303AD0012F24
:100C40001FD8002220AB03F82C2D1C200D210122DF
:100C500008F09AF9A8B19DF854302A2B01D01A2B2C
:100C60000FD1454A4C4985F8623011604B495160BB
:100C70003CB10223032289F80030424B96421A709D
:100C800018D0002120AB03F82C1D1820012208F0F9
:100C90007BF978B19DF85430FB2B0BD1364B404A91
:100CA0001A60404A5A602CB1364B04221A703E4BEF
:100CB00001221A70334B1B7843B90EB11E4601E76F
:100CC000D8F8003023F00203C8F80030012F05D116
:100CD0000AF06DFF354B4FF400525A610A2001F0C3
:100CE000C4FC7720A021012210AB08F04DF910B907
:100CF0004FF0000986E01E210122772008F074F8E9
:100D00004FF42F6001F0A6FC0026A6F16001002739
:100D1000C9B2022215AB77208DF854708DF855704A
:100D200008F032F99DF855309DF8541043EA01213E
:100D30001F4B03F16402B1520236102EE5D1B3F815
:100D400072E001210EF00F060EF47F4EA3F872E060
:100D50003A463B4622F001002844B0F864000028DF
:100D600018BF0021D70703D5C0B24340082021E0B7
:100D700083EA1023FAE700BF4C040020318F0008FB
:100D80008B9200080C2600204433010850330108E0
:100D900061BA00084991000895B90008EF91000870
:100DA0000D8F0008479200085E04002000100140EB
:100DB000640700201F0448BF83F4C05301384FEA82
:100DC0004303F7D10132102AC4D146EA0E0EA5F82A
:100DD00072E000298CD1C3F303339E4288D1A44B27
:100DE00042F210721A805A80A24AA1465A60A24A60
:100DF0009A60A24ADA60A24A1A61A24A5A61002C99
:100E000040F0D68095F874309F4E002B40F0D08093
:100E10009E4F0AF0CCFE4FF4804510A904233846BB
:100E2000ADF840508DF842304FF4005802F07CF994
:100E3000974BC7F810805A6915A822F470625A615E
:100E40005A6942F400725A610823159501258DF8FC
:100E500059308DF858908DF85A5005F079F92823BB
:100E60008DF83C300FA80F238DF83D308DF83E30C3
:100E70008DF83F5005F032FE142001F0F6FB2A46B3
:100E800010AB7720D02108F07FF89DF84030032286
:100E9000552B86F88F30A6F8982018BFC7F8148015
:100EA00040F08180D1212A4610AB772008F06CF801
:100EB0009DF84030772003F00F021B0986F8902040
:100EC00086F89130162215ABAA2108F05DF89DF83E
:100ED00054209DF8553043EA0223A6F878309DF857
:100EE00056209DF8573043EA0223A6F87A309DF841
:100EF00058209DF8593043EA0223A6F87C309DF82B
:100F00005A209DF85B3043EA0223A6F87E309DF814
:100F10005C209DF85D3043EA0223A6F880309DF8FE
:100F20005E209DF85F3043EA0223A6F882309DF8E8
:100F300060209DF8613043EA0223A6F884309DF8D2
:100F400062209DF8633043EA0223A6F886309DF8BC
:100F500064209DF8653043EA0223A6F888309DF8A6
:100F600066209DF8673043EA0223A6F88A309DF890
:100F700068209DF8693043EA0223A6F88C303C4B88
:100F800041F2707286F874501A8046F678125A80D0
:100F9000404A5A60404A9A60404ADA60404A1A61C0
:100FA000404A5A6124B9404B1A6822F004021A6080
:100FB00020AF002307F82C3D1E200A2101223B46CA
:100FC00007F0E2FFDFF8E08038B19DF85430482B9D
:100FD00003D1364B03221A7005E0D8F8003023F015
:100FE0000803C8F80030324D95F8E2300BB1314AB1
:100FF000137095F8E3300BB12F4A137095F8E43075
:101000000BB12A4A1370D8F800309A0702D52B4B3F
:101010001B6898472A4E33689847D8F800301B075A
:101020001ED50FFA8BF24FF0640B92FBFBFA504681
:1010300005920CF0F3FD059A81460BFB1A2000B2D5
:101040000CF0ECFD1F490CF03DFE014648460CF04B
:1010500031FD1D490CF036FE0B49C1F89C0035E00E
:10106000094A0023C2F89C3030E0032006F006F85D
:1010700090020020CD8E0008A1900008C58E0008C7
:10108000B1900008ED230008640700200010014023
:1010900000000140F98E000811910008D58E00086B
:1010A000C1900008452500083C02002003260020CE
:1010B000601E0020F60300205E0400204C04002087
:1010C000E00300208988883C000020418E4B1022DC
:1010D0005A6108221A614FF00A0BDFF82CA219207E
:1010E000DAF80C300BF1FF3B83F01003CAF80C3038
:1010F000DAF80C3083F00803CAF80C3001F0B5FAC6
:10110000012001F0BCFA192001F0AFFA002001F033
:10111000B6FA1BF0FF0BE0D10823CAF810301023F9
:10112000CAF81030794BDFF818A21B6893F90C004D
:101130000CF0AAF970A3D3E900230CF00BFA0CF021
:1011400063FC0FF0ADFF8346BAF800000CF066FDBB
:1011500059460CF0B7FD0FF0D9FF6D4B1880BAF867
:1011600000000CF05BFD01466A480CF05FFE6A4926
:101170000CF05CFE694BDFF8CCA11860F0680CF055
:1011800095F95DA3D3E900230CF0E4F95CA3D3E95E
:1011900000230CF0DFF90CF037FC614B6A79186022
:1011A000604B61491A70614BC1F8A0306049614BD6
:1011B00001EBC20292F831201A60AA68960644BF79
:1011C00001221A60D8F8003013F0080F00F0FC80FC
:1011D0004D4B10225A61584ADAF81810127800263E
:1011E000012A8CBF102008208CBF4FF480424FF49E
:1011F000805240EA01015148CAF81810ADF8402069
:101200004FF0020298BF184610A98DF8432004221F
:101210008DF8422001F088FF322001F026FA0021EB
:1012200011221E2007F0E0FD012160221E2007F0A0
:10123000DBFD642001F019FA384607F0E3FEB14601
:101240000A23B346022101221E20039307F0CCFD9E
:10125000322001F00AFA384607F0D4FEBDF95410E6
:10126000BDF95600BDF958208B448842B8BF0146ED
:1012700016449142B8BF0A4612F5805F8144039B31
:1012800008DD214A013BD16881F01001D160D9D13C
:10129000012300E000231E2000211222069307F004
:1012A000A3FD0A23022101221E20039307F09CFDC7
:1012B000322001F0DAF9384607F0A4FEBDF95410E7
:1012C000BDF95600BDF95820C1EB0B0B8842B8BFE1
:1012D0000146B61A9142B8BF0A4612F5805FC0EBCC
:1012E0000909039B30DD084A013BD16881F01001F8
:1012F000D160D7D12AE000BF399D52A246DF913F8D
:10130000000000A0F7C6B03E000C01409804002089
:10131000BC0400200AE81C4100401C46B003002029
:10132000940400208E05002064070020701E002019
:1013300044330108B00600200B26002000100140B5
:1013400000000020001002400023069358460CF0D5
:1013500065FC01469C480CF069FD9C4F20F0004064
:10136000B86148460CF05AFC014697480CF05EFD07
:1013700020F00040F86130460CF050FC01469448E3
:101380000CF054FD20F000403862002170221E2035
:1013900007F02AFD012120221E2007F025FD022151
:1013A00000221E2007F020FD642001F05EF9069B5C
:1013B00023B94FF07E53BB61FB613B62854B10222A
:1013C0001A61854B01221A70844E00214FF4A072DD
:1013D00006F1A4000FF035FCDAF81C3043F00703E7
:1013E000CAF81C30DAF8183043F4006343F00C03F9
:1013F000CAF818307A4BC6F8E4310AF03FF81622E2
:1014000006F5F470FF210FF01CFC002386F8E8318C
:10141000D8F800300122980786F8FE2107D586F813
:10142000E921032286F8FE21022286F8EA2113F040
:10143000040F6A4E08D096F8FE21511C86F8FE1162
:101440003244032182F8E81113F00A0F14D096F801
:10145000FE310421F21882F8E8115A1CD2B232444B
:10146000052182F8E811DA1C0233DBB286F8FE218E
:101470003344062283F8E821AB68990608D596F82C
:10148000FE21511C86F8FE113244072182F8E81132
:101490001A060ED596F8FE210920B11881F8E80148
:1014A000911C0132D2B286F8FE1132440A2182F830
:1014B000E8116A79082A01D00E2A08D196F8FE218F
:1014C000511C86F8FE1132440B2182F8E81196F87F
:1014D000FE214FF00C0EB718511CC9B287F8E8E195
:1014E0005F073E4886F8FE1106D5023280F8FE21DD
:1014F0000144102281F8E82196F8FE214FF0120EE7
:10150000B71887F8E8E195F84571511CC9B2002F6A
:101510000CBF002703F00107304886F8FE1137B1F1
:10152000023280F8FE210144132281F8E82196F866
:10153000FE214FF0140EB718511CC9B287F8E8E12C
:101540009F05264886F8FE1106D502320144152370
:1015500080F8FE2181F8E8312248002198220FF01E
:1015600070FB0027D5F830214FF000094FF000083C
:10157000CDF8008001204146032308F09DF8824603
:1015800038B9B9F1000F2FD14FF496424FF001094D
:10159000ECE7012FE6D84C2202FB07F3DFF844907A
:1015A00007F1010B09EB03073846414603930FF09F
:1015B00048FB039B5FFA8BFB49F803A0012387F8E4
:1015C0004A305F46CEE700BF00406F46140000205F
:1015D00001C05E46000C0140840200206407002028
:1015E0008C1F002064090020022005F0B1FCD6F811
:1015F000E4710146C6F8980240B900910323022025
:10160000BA6808F059F8B74BC3F8980210A800213F
:1016100014220FF016FB6B790E2B01D0082B02D190
:1016200001238DF84A300027AF4A0023B85C12F836
:1016300003E0D118864503D01033602BF7D1002189
:1016400005F006FF83681B78012B03D01037602F4D
:10165000EAD10024AB68A549C3F340028DF84520C8
:10166000C3F380128DF846200968C3F340328DF829
:101670004020C3F3C03200318DF842209C48C3F3B0
:10168000C02218BF01218DF84320C3F300428DF81A
:1016900047208DF8481003F0010201688DF844409E
:1016A0008DF8412091F8B011B5F8E040C1F3800108
:1016B0008DF84910B5F8DE10ADF84E40D8044FF45F
:1016C0007A74ADF84C10ADF8504004D5894BB3F89E
:1016D000DA30ADF85030B1F5FA7F84BF0023ADF8B1
:1016E0005030B5F818318449ADF8523095F82031B2
:1016F00086F89C32002386F89D324B709DF84A3064
:10170000002B14BF0223002302B101337B4A0027C0
:1017100002EB8303D3F84831BB4606939246069901
:101720004FF6FF72CD5B9542EBB20AD1744B96F83F
:101730009D221A70734B1D78162D40F048810024AD
:1017400036E1DFF8E0919DF844204FEA031809EBF9
:1017500008041AB19A1E012A40F217819DF8472009
:101760002AB159F8082068498A4200F00E819DF894
:10177000422012B1012B00F008812D0A022D05D163
:101780009DF84020002A08BF002503E0012D08BF76
:101790009DF841509DF848203AB19DF84A2022B961
:1017A000A3F10802012A98BF04259DF8492032B10F
:1017B0009DF84A201AB9043B032B40F2CF80012D3B
:1017C0003BD1484A0023FF2182F8A032C2F8A4325C
:1017D000C2F8A832C2F8AC32C2F8E03282F8E412A1
:1017E00082F8E51282F8E632E17B82F8E73282F88D
:1017F000E832C2F8F442A2686068ADF854208DF86F
:101800005610022215A98DF85720039301F08CFC85
:10181000039B59F808001A46217B0AF078F8204605
:101820002A464FF6FF7105F0D7FF039B2046194665
:10183000364A374B04F0F2FAA7E0022D38D15FFAAE
:101840008BF3DFF8E4E018010EEB000100224FF00B
:10185000010C4B708A708A720EF800C0CC60A168CF
:1018600094F80FE06068ADF8541015A98DF856E0B3
:101870000393CDF810C005928DF8575001F054FC39
:1018800059F80800217B059A0AF041F8DDF810C0EC
:10189000204662464FF6FF7105F09EFF039B2046EF
:1018A00019461C4A1C4B04F0B9FA0BF1010B6CE011
:1018B000032D51D1BDF84C300A4DB3F5FA7F95F8A0
:1018C0009E8233D9154A2046B2FBF3F20821BDF8B7
:1018D000503092B209F0F0F805EB8803C3F86803C2
:1018E0000F4B32E0640700202C340108B0060020C2
:1018F000DC030020601E0020010A002044330108A0
:101900006C0600208E05002000040040A122000883
:10191000A923000849B900087D23000800127A00B5
:10192000C9230008044D01084C0A0020904A2046B3
:10193000B2FBF3F20121BDF8503092B209F0BCF8CD
:1019400005EB8803C3F868038A4B836095F89E32E1
:10195000013385F89E3218E0042D16D1BDF84E30C3
:10196000834A204692FBF3F20121BDF8523092B235
:1019700096F89D5209F0A0F896F89D3206EB850581
:101980000133C5F8980386F89D3202371C2F7FF487
:10199000C6AECBE6784F98E80F00274487E80F00E3
:1019A000764B10341A78C02C02F101021A7009D05B
:1019B000D6F8A0300021185903EB04080CF016FBF0
:1019C0000028E7D06E4FBB68D9041DD417E00AEB9E
:1019D000C50393F830E0694AD3F834C082F800E0D8
:1019E000BCF1000FEED000247445EBDA624F230106
:1019F0001F4463440FCB013487E80F00F4E7082D40
:101A0000DFF8C08128D129E05C4B93F80090B9F150
:101A1000010FF4D95B4C4FF00008C84504F11004E5
:101A2000EDDA54F8100C4FF07C510CF04BF94FF0FC
:101A30007C5144F8100C54F8140C0CF043F94FF09E
:101A40007C5144F8140C54F80C0C0CF03BF908F1E0
:101A5000010844F80C0CE0E70E2D04D198F8003092
:101A600043F0100303E098F8003023F0100388F8E7
:101A700000300AF015F94449444B4548454AC6F838
:101A8000BC3301600023B7F81801C6F8B813A6F8F4
:101A9000C23386F8C433C6F8C823C6F8CC233E49FF
:101AA00058520233242BFAD13C4B3D4C1A60BB6890
:101AB00013F0080F00F0A280314B002293F816318A
:101AC000042B00F29580DFE803F003032A447F0033
:101AD000012B4FF0030208D184F8D023072284F8A9
:101AE000D23384F8D1230C2308E0022384F8D033C6
:101AF000002384F8D23384F8D123072384F8D33326
:101B0000002300930820012326494FF4E13207F017
:101B1000D3FD254BC4F8D803C4F8DC3364E00123BB
:101B20000093224905230820214A07F0C5FDB7F894
:101B30001811C4F8E003A1F57771490000231D4A8C
:101B400099500433302BFAD11B4BC4F8DC330C23EF
:101B500048E000920123082018494FF4E13207F0D1
:101B6000ABFD174BC4F8E403C4F8DC33102339E0B1
:101B700040420F00B923000894050020D82500201A
:101B8000601E00209C0500206E1F00209C34010870
:101B90003C010020200B00206E06002030020020B7
:101BA000640700204964000869630008556500085F
:101BB000A08601005C0100201D640008E1640008AB
:101BC0000D640008720200200092012308203A49A7
:101BD0004FF4E13207F070FD384BC4F8E803C4F865
:101BE000DC33082384F8D333003018BF012028B930
:101BF000082001F0BCF80023C4F8DC33BB685A04A9
:101C000005D5082284F8D3232D4AC4F8DC2342F2F8
:101C100001021A4003F0010103F400505AB1294AAD
:101C2000C4F8DC2318B1284A082082F8D30311B184
:101C30000C2284F8D32394F8D3231E06A2F10402C5
:101C400084F8D42354D5214A1F4BC3F8EC23D7F88A
:101C5000382100230AEB0311D1F88411914204D0FA
:101C60000133DBB2042BF5D9002384F8F133184B90
:101C70000020C4F80C3404F09FF8164B00211B68B8
:101C8000C4F8F413C4F8F83397F8263110208B42C7
:101C900094F8F13300910AEB0313D3F884210CBFBD
:101CA0000123032307F008FDC4F81004A0B9802025
:101CB00001F05DF813E000BF95640008F9630008C7
:101CC000316400083D640008640700208C1F002078
:101CD000861F00205C1E0020012004F06DF8924A4F
:101CE000924B106800F5D97204301A6001F062F965
:101CF000BB689D050DD598044CBF8D488D4805F0F7
:101D000028FE8D4B1A6842F010021A608B4B00229D
:101D10001A608B4B8B49D4F8C8230B608033C4F80E
:101D20001434894B894D1A60BB684FF0000913F4D5
:101D3000803F85F80090864E00F0B78001F076F87D
:101D400001F0B0F801F08AF8824B40F22A3C4FF0E3
:101D5000010A62461846494685F800A00393CDF86B
:101D600010C00EF06EFFB2697B4842F00402B2610F
:101D70004022ADF8382018228DF83B200EA903220E
:101D80008DF83A2004F086FDF269744D42F00202AB
:101D9000F261734ADFF8E0B11168724AB1FBF2F107
:101DA0002A88013922F45C721204120C2A8089B24A
:101DB0001D22AA852985A5F814A02A8C22F00102EB
:101DC0001204120C2A842A8CA888298B22F0020281
:101DD00021F0730109041204090C120C41F0600196
:101DE00080B242EA0A02A8802983A5F834902A84A6
:101DF0002A8B584622F008021204120C42F0080204
:101E00002A83B5F844206FEA42426FEA524292B206
:101E1000A5F84420726942EA0A02726104F0E6FD04
:101E20005149039B159180211A914FF48071DDF87F
:101E300010C01B914FF4005116931E911023584669
:101E400015A917930393CDF860C0CDF86490CDF831
:101E50007090CDF87490CDF87C9004F0A9FDA9891C
:101E6000039B89B241F40071A981DBF800100FA82F
:101E700041F00201CBF800108DF83C3002238DF8C0
:101E80003DA08DF83E308DF83FA004F027FE374B83
:101E90001A68374B49F8032009F10409B9F1800F9A
:101EA000F5D104F07FF804F07DF8B369022543F022
:101EB0000403B361284E102315A930468DF857301E
:101EC000ADF854508DF8565004F0E4FC7561BB68D1
:101ED000590540F18580042005F0E0FB014604200F
:101EE00005F0B6FA18B14368187A00F00100BB6833
:101EF00084F8420713F480690BD0042005F0CEFB70
:101F00000146042005F0A4FA10F1000918BF4FF0B3
:101F10000109D4F84467174D337884F843976BBBB5
:101F2000C5F8486752E000BFDC03002078050020B8
:101F300014350108203501083C0200209C000020D7
:101F4000B41F0020C40600204C070020B406002067
:101F5000001002407C0B00200008014000040040FB
:101F6000A400002000366E0134040040063301084E
:101F7000C8060020640700206C000240012B25D118
:101F800000212C2205F5EA60C5F84C670EF059FED9
:101F90008E234FF07C0B85F851374FF07D0AE023FC
:101FA00005F27C7000212C2285F8533785F850B754
:101FB00085F87BA70EF045FE8A2385F87D37A023A0
:101FC00085F87CB785F87F3785F8A7A73378022B8B
:101FD00008BFC4F8A867B9F1000F01D007F0D6FB1D
:101FE00000F01EFB254B18607B79052B03D1244B99
:101FF0004FF4C8721A80234B4FF47A721A80224B26
:10200000C8221A8098F8003043F0080388F800309E
:102010001E4B1A7822F002021A70BB689A071ED56E
:102020001B4BC4F8AC3704F04BFE282000F01DFB1E
:10203000079B013B0793F6D197F8051194F8B00779
:102040000A460123904203D30133082B0A44F9D1F5
:10205000104A137097F806215343A4F8B237BB68AF
:102060009B0308D594F8533043F0010384F85330B0
:10207000032384F8543021B0BDE8F08FF40400202D
:102080006004002000260020F82500200A260020F9
:10209000641F0020A0000020034B4FF4805208B1C1
:1020A0001A6170475A61704700080140034B4FF4B2
:1020B000805208B15A6170471A61704700080140A8
:1020C000032810B50F4B0DD80F4A126894888C4224
:1020D00008D2D2888A4205D9012202FA00F01A7881
:1020E000104318701B780F2B0BD1064B00221A706F
:1020F000064B998808B2142802DD1439998010BD66
:102100009A8010BD180F00209C1D0020200B00207D
:10211000024B9A8801329A80704700BF200B002042
:10212000074B1A68074B1178B3F9040053780B4436
:1021300003EB83039842D4BF00200120704700BF07
:102140009C1D0020200B0020064BB3F90400064B19
:102150001B681B7803EB83039842D4BF0020012047
:10216000704700BF200B00209C1D002010B50446C6
:10217000FFF7EAFF002814BF2046002000F001000E
:1021800010BD024B01221A72704700BF200B0020C5
:10219000014B187A704700BF200B0020034BB3F9A6
:1021A0000400D0F1010038BF00207047200B002050
:1021B000014B00229A807047200B002003685A1CB4
:1021C000026019707047016B0346C26810B5406920
:1021D00041B1196C541A005D013918BF0A46C0B2EA
:1021E0001A6410BD196A405C0131B1FBF2F402FBC4
:1021F0001412C0B21A6210BD026B03691AB15168A1
:10220000013B026C02E0C169026A013B881A184076
:10221000C0B27047436B13B190F844007047826AB4
:10222000436AD31A58425841704743799B070AD5ED
:10223000436A8269D154426A03690132B2FBF3F105
:1022400003FB112343627047437913F0010307D066
:10225000C368C169026A013B881A1840C0B270475E
:1022600018467047437910B513F0010304460DD0AA
:10227000FFF7EAFF58B1226A6369985CE3680132AC
:10228000B2FBF3F103FB1123236210BD184610BD0E
:10229000426A806A131A5842584170474171704728
:1022A000334A10B5136C90681944081A40F68C2311
:1022B00098429160D060516013463CD9127893F9EE
:1022C00045108A420BD1111F082908D893F84610EF
:1022D000182901D8013103E083F8442002E00021ED
:1022E00083F8461093F944108A421CD1204991F892
:1022F0004710C1B1002191421E4806DA03EB810468
:10230000246920F811400131F5E7511E00EB41012D
:102310001630814203D0002421F8024FF9E7164914
:1023200008780130087083F84520002201211A70D6
:1023300083F8471010BD92F84710B9B1A0F2EF240E
:1023400040F2DA518C4208D811780B2905D80B1DC0
:102350000131117042F8230010BD002283F847209C
:10236000991804320020302A0861F9D110BD00BF4D
:10237000040A0020C01C0020F41C0020084B03EBC2
:102380000010837A0133DBB20A2B837207D983787A
:102390001BB94178034A22F8113000238372704739
:1023A0004C0A0020C01C0020024B1A6C1144196416
:1023B000704700BF040A0020024B53F820301B680E
:1023C00019807047CC0A0020074BA1F57A7153F8A9
:1023D00020304FF47A701A689B884B4393FBF0F3DC
:1023E0009BB21380704700BFCC0A00202DE9F04F4C
:1023F000504A514E1768738984463089A7EB0327EA
:1024000085B0039187FB0001B288CB111404C20987
:10241000F08842EA416287FB000114EB02087288EF
:102420004FF000054FEAC2344FEA1022B08945EB65
:10243000030942EA01620B1287FB000114EB020A56
:102440004FEAD05242EA41224FF0000545EB030B20
:1024500012F5FA604FEAE15343F10001CDE90001C2
:10246000B0F5FA6F71F1000147DAA2FB024502FBF9
:1024700003F1052605EB4105A4FB060106FB05114A
:102480004D104FEA3004B8EB040869EB05098408E5
:102490002A4844EA81748D104FF0FF31BAEB040AE8
:1024A0006BEB050BDDE9004584428D4125DA40F6F2
:1024B000AC5012184FF0000143EB010302FB03F193
:1024C000A2FB02236FF0060003EB4103544200FB22
:1024D0000344A2FB000118EB000821444FF00B0459
:1024E00049EB0109A2FB040104FB031149104FEA67
:1024F0003000BAEB000A6BEB010B114B1A68A2FB20
:102500000A0102FB0B11420D42EAC1224B15B2EB4C
:10251000080263EB0903D00B40EA4340BCF1000F13
:1025200001D0CCF80000039808B10099016005B013
:10253000BDE8F08F7C180020C807002024FAFFFFB8
:1025400080180020324B2DE9F0411C88314B0A26BF
:102550005A89B3F91250A41A1A89ED025443B3F9F7
:102560001420E413224495FBF2F22244DA6156432C
:10257000A2F57A6202FB02F4B3F90480B3F902C057
:10258000B3F90E7002FB0CFC02FB08F2B3F90C80ED
:102590002413674304FB08F4241404EB6232023270
:1025A000DC88921002F50042B3F920506243B3F97F
:1025B00000304FEAEC2404EBE72404EB8304AC4046
:1025C000154B02341B68D20BA3EBA4044CF250331E
:1025D0002B41634355BF5B00B3FBF2F3B3FBF2F354
:1025E0005B001A12524340F6DE3462430B4C08364D
:1025F0005C43241404EB224202F6CF62361103EB53
:10260000221300B1036001B10E60BDE8F08100BF8C
:102610008C180020DC0700208818002043E3FFFF0F
:1026200010B5094A094913688C6812689342F8D1B9
:10263000074A106811684FF47A725043001BB0FBD0
:10264000F1F002FB030010BD5C1E002010E000E072
:102650006C07002038B50446FFF7E2FF0546FFF798
:10266000DFFF401BA042FAD338BD10B504462CB1A1
:102670004FF47A70FFF7EEFF013CF8E710BD08B5A4
:10268000014B1B68984708BD1026002008B5036859
:102690005B69984708BD08B503681B69984708BD82
:1026A00008B50368DB68984708BD08B503689B68F0
:1026B000984708BD08B503685B68984708BD10B522
:1026C000044C2068FFF7F6FF18B12068FFF7EDFF14
:1026D000F6E710BDB01B002008B503681B689847DB
:1026E00008BD014B1868F7E76018002038B5054CA5
:1026F00005465E212068FFF7EFFF20682946BDE808
:102700003840E9E7A41B0020014B5E211868E3E78D
:10271000A41B002010B50A4C5E280146206805D194
:102720005D21FFF7D9FF20683E2105E05D2903D137
:10273000FFF7D2FF20683D21BDE81040CCE700BF85
:10274000A41B002010B50446C0B2FFF7E3FFC4F39A
:102750000720BDE81040FFF7DDBF10B50024094B8E
:10276000E0B21B7883420CD9074B33F81010074BAB
:1027700053F820301BB10B2801D89B6898470134CF
:10278000EDE710BDD8250020DA250020CC0A002076
:10279000054B1B6803EBC00090F9063019420CBFD3
:1027A00001204FF0FF307047540600200A4B1A6892
:1027B00002EBC002D379FF2B07D008490978994270
:1027C00003D9074A32F8130004E00728D4BF9088E1
:1027D00040F2DC5000B2704754060020370B002056
:1027E0006E0600202DE9F04F0C68836889B0D0F8A0
:1027F00000A0D0F804800646204603938B460EF0D6
:102800004FFC074620460EF0BFFCDBF80440814633
:1028100020460EF045FC054620460EF0B5FCDBF8E0
:1028200008200446104601920EF03AFC019A8346B5
:1028300010460EF0A9FC3946029058460BF042FAB9
:102840003946049002980BF03DFA594605904846E7
:102850000BF038FA0299069048460BF033FA2946F5
:10286000079058460BF02EFA014650460BF02AFA14
:102870002146834606980BF025FA014605980BF091
:1028800019F9014640460BF01DFA014658460BF077
:1028900011F92146834604980BF014FA0146079873
:1028A0000BF006F9014603980BF00CFA0146584666
:1028B0000BF000F93060029905F100400BF002FACC
:1028C000014650460BF0FEF92146834607980BF06F
:1028D000F9F9014604980BF0EBF8014640460BF07D
:1028E000F1F9014658460BF0E5F821468346059874
:1028F0000BF0E8F9014606980BF0DCF80146039866
:102900000BF0E0F9014658460BF0D4F82146706010
:1029100050460BF0D7F92946044609F100400BF068
:10292000D1F9014640460BF0CDF9014620460BF0A7
:10293000C1F83946044628460BF0C4F9014603980D
:102940000BF0C0F9014620460BF0B4F8B06009B0B6
:10295000BDE8F08F2DE9F84F374E0446376838460A
:102960000EF09EFB054638460EF00EFC766880465B
:1029700030460EF095FB834630460EF005FCD4F849
:1029800004900646294648460BF09CF9A768824603
:10299000414638460BF096F9014650460BF088F850
:1029A0002168824658460BF08DF941460446484658
:1029B0000BF088F931460BF085F9014620460BF003
:1029C00079F83146044638460BF07CF929460BF07D
:1029D00079F9014620460BF06DF8014650460EF09D
:1029E00061FC16490BF06EF90AF060FD10A3D3E903
:1029F00000230AF0D9FE124B044618680D460AF06F
:102A000055FD02460B46204629460AF0F1FB0022FE
:102A10000C4B0AF0C9FE0AF0F7FF0EF077FB83B209
:102A20001A0444BF00F5B4739BB218B2BDE8F88F26
:102A3000182D4454FB210940C00400200000E1444B
:102A40000008002000002440064B1B7803F004031C
:102A500003F0FF001BB1044B1888C0F3C01000F056
:102A6000010070470A26002044020020034B1A7818
:102A7000510744BF22F004021A7070470A26002052
:102A800070B5FFF761FB38B3144C237A0BB9A38000
:102A900070BD134D2E78C6F38000FFF767FB90B131
:102AA000104B46F002061A680F4B51892E701980A0
:102AB0005189598052899A800C4A12685288DA806A
:102AC000E3880133E380FFF72BFB10B92B785B071A
:102AD00002D4BDE87040C9E770BD00BF200B0020E4
:102AE0000A2600201C0B00206E0600209C1D0020E2
:102AF000064BB3F90C2040F2FA539A42044B4FF0C4
:102B00000202CCBF1A615A61704700BF6E060020F6
:102B1000000801402DE9F04102780346202A00F127
:102B20000100F9D0092AF7D02D2A02D10346414DE0
:102B300004E02B2A08BF03464FF07E551E460024B2
:102B4000334616F8012BA2F13007F9B209290DD846
:102B5000394920460BF0B6F8044638460BF05EF8CB
:102B6000014620460AF0A6FF0446E9E72E2A17D1BF
:102B7000314F334616F8010B3038C2B2092A0FD84C
:102B80000BF04CF839460BF051F9014620460AF09B
:102B900091FF2949044638460BF094F80746E8E7C8
:102BA0001A7802F0DF02452A38D15A782D2A02D14C
:102BB0000233012604E02B2A14BF0133023300261E
:102BC000013B002713F8012F303AD1B2092903D86D
:102BD0000A2101FB0727F5E7B7F59A7F28BF4FF4D5
:102BE0009A77B8464FF07E51B8F1070F07D90846DB
:102BF00012490BF067F8A8F108080146F4E707F05E
:102C0000070737B108460C490BF05CF8013F014655
:102C1000F7E72EB120460BF009F904E04FF07E51A2
:102C200020460BF04FF8014628460BF04BF8BDE864
:102C3000F08100BF000080BF0000204120BCBE4CDE
:102C4000F0B50124B0FBF4F58D4201D34C43F9E714
:102C50000026DCB1B0FBF4F504FB1500B4FBF1F485
:102C60001EB9002D01DC002CF3D1092D03F1010761
:102C70005FFA85FC04DD002A0CBF5725372500E0EC
:102C8000302565441D7001363B46E2E71C70F0BDFF
:102C9000F0B50124B0FBF4F58D4201D34C43F9E7C4
:102CA0000026DCB1B0FBF4F504FB1500B4FBF1F435
:102CB0001EB9002D01DC002CF3D1092D03F1010711
:102CC0005FFA85FC04DD002A0CBF5725372500E09C
:102CD000302565441D7001363B46E2E71C70F0BDAF
:102CE00070B50646B6FBF2F40846154614B1204608
:102CF000FFF7F6FF05FB1464024B1B5D00F8013B78
:102D000070BD00BFBE4E01082DE9F041069C002BAE
:102D100006460F460CBF4FF020084FF03008234600
:102D200013F8011B09B9154603E0002AFBDD013A3F
:102D3000F6E7002D04DD30464146B847013DF8E78F
:102D400014F8011B11B13046B847F9E7BDE8F0812E
:102D500080EAE073A3EBE0738B4206DB002801DD21
:102D6000401A704702D00844704700207047034B58
:102D70009A6822EA00009860704700BF601E002039
:102D8000114A30B50028B8BF4042104C90FBF2F316
:102D900004FB03003C2568430D4D90FBF2F22D68C7
:102DA0002D7B25B903EB830303EB830301E0C3EB26
:102DB000031302EB830304FB02020B804FF47A73CC
:102DC00092FBF3F24A8030BD80969800806967FFDD
:102DD000AC0E0020094B1B786BB1094B1B685B786C
:102DE00023B1084B1868C0F3C0407047064B1878F1
:102DF000C0F3800070470120704700BFA60E00207E
:102E0000A80E0020400200200A26002008B506482F
:102E10000DF058FFC0B2142805D8034A431C2021E6
:102E20001154D8B2F7E708BDDD1C0020094A0A4852
:102E3000002310B5116803701A46CC1864880CB9C9
:102E4000CC5C24B104330132802BD2B2F5D10270B4
:102E500010BD00BFC40600204807002010B50B4B72
:102E60000B4819780B4B5A784B085C1E047001F024
:102E7000010109480B44037008495308581E0870A3
:102E800002F00102064913440B7010BD5D070020DB
:102E900058070020180F00205A0700205B07002069
:102EA00059070020F0B50F4A0F4816780F4A002343
:102EB000176843701A4619460546D0B2B0420CD284
:102EC00017F82200013204099C4200F00F00A8BF4D
:102ED000631C8842A8BF411CEFE76B70044B19705C
:102EE000F0BD00BF48070020180F0020C4060020D6
:102EF0005D070020F8B5101A0C461F460AF08EFE3A
:102F00000546381B0AF08AFE174B079E19680AF01F
:102F1000D9FE2946044628460AF0D4FE2146074633
:102F200020460AF0CFFE014638460AF0C3FD0EF0F7
:102F300043FB0E490AF0C6FE0BF0B0F8069B214693
:102F4000186005F100400EF0ADF909490AF0BAFE2B
:102F500008490AF0AFFD0BF07BF80028BCBF00F574
:102F60000C40A0303060F8BD6C0000202C7D8E3FFE
:102F7000A00CB34500A00C4610B50AF04FFE00218E
:102F800004460BF05BF808B1204601E004F1004074
:102F900005490AF04BFF05490AF094FE0EF080F84F
:102FA000034B186010BD00BF8096184B35FA8E3C5D
:102FB0006C00002070B5044600790AF02BFE1E4913
:102FC0000AF034FF1D4D1E4E2860A07B0AF022FE41
:102FD00019490AF02BFFEE60686060790AF01AFE6A
:102FE00018490AF023FF184D2860E07B0AF012FE12
:102FF00011490AF01BFF6860607E0AF00BFE13495E
:103000000AF014FFEE60A860A0790AF003FE0D49F3
:103010000AF00CFF0E4D2860207C0AF0FBFD0649EB
:103020000AF004FF6860A07E0AF0F4FD07490AF088
:10303000FDFEEE60A86070BD0000C84228120020AE
:103040000000FA44000020413812002000007A44B9
:103050005C12002044F25063984203DDA0F50C405E
:10306000A0387047034B9842BCBF00F50C40A0301D
:10307000704700BFB0B9FFFF10B50023094CDAB2AA
:1030800054F8224001338442F8D10023064CD8B2D0
:1030900034F8104001338C42F8D102EB8000C0B20A
:1030A00010BD00BF1C3A0108563C010890F83B32A5
:1030B00010B57BB990F83A3290F83922934209D290
:1030C00001219940B0F8404201332143A0F8401259
:1030D000DBB2F3E710BD8379012B03D1D1F10101FC
:1030E00038BF0021D0F834315A681B8909B1136107
:1030F000704753617047044B53F820301BB10728C9
:103100009CBF1B6819807047FC0A002010B5054C55
:1031100000202188FFF7EFFF61880120BDE8104003
:10312000E9E700BF860000202DE9F0410F88002369
:1031300047FA03F2D2072BD58A7803F0070512F07D
:10314000100F18BF91F803C002F00F0618BF46EA2F
:103150000C06AD004FF00F0C0CFA05FC06FA05F555
:10316000DC0850F82480282A28EA0C0C45EA0C05D3
:1031700040F8245005D101229A40C46824EA020292
:1031800005E0482A04D101229A40C4682243C26063
:103190000133102BCCD1BDE8F08100BFAFF300802C
:1031A000A14A2DE9F04F1368A04903F59C43A04DB7
:1031B00020330B60AB6885B013F4807F174604D0D2
:1031C0009C4B1B681B681B699847AB6842F2010463
:1031D0001C405CB9984E337873B1964B1B681B68E2
:1031E0001B68984708F018FF347005E0934B1A7875
:1031F00001321A7008F010FFAB68DA0405D5904B65
:103200001B68DB0701D4FFF731FC8E4B3C681B6861
:103210001E7CCEB18C4A013E32F91600A0F57A70C0
:10322000B0F57A7FA8BF4FF47A7020EAE0700AF018
:10323000F5FC86490AF0FAFD85490AF043FD0AF0DB
:103240002DFF7E4B58803EE0AB681F043BD57B4A88
:103250005368E31A002B36DB04F59C43203353609C
:103260007C4B59797C4B33F81100137A80B20133CF
:1032700003F00F031372D7180AF0D0FC77490AF055
:10328000D5FD0AF00BFF3346787230466B4E06F1DF
:1032900009029A5C01331044102B80B2F6D100B2BF
:1032A00090FBF3F000B26428A8BF642020EAE0702D
:1032B0000AF0B4FC6A490AF0B9FD65490AF002FD5A
:1032C0000AF0ECFE7080AB68D80510D5654B9C42C7
:1032D000654C08D923681B681B6A984718B923688E
:1032E0001B685B6A984723681B685B699847AA68F4
:1032F000DFF854A112F4805F4D4BB5F8DC10BAF939
:10330000062007D0B3F81831581A824207DD194455
:103310008A4202E0B3F81A319A42C0F2558401227F
:10332000002195F8218195F82201B5F81A61B5F8C8
:103330001C710B463AF901409B08B442C4BF63F0CC
:103340007F03DBB20231BC42B8BF43F0400308291F
:10335000F0D13A4C617E994204D1A17EF92903D87B
:10336000013100E00021A1766376404B344F19789B
:10337000A1B93B68D90707D582B93D4B1B78DB075C
:103380000CD503F007FD09E0394B1B785E0705D526
:1033900010B1FFF76BFB01E0002AFAD0A37E274AA9
:1033A000142B344E40F09880314B18F100081B78F4
:1033B00018BF4FF0010803F0040303F0FF0083B1CE
:1033C0002A490B78002B00F08780537E5F2B02D1B7
:1033D000FFF74CFB80E0B8F1000F7DD07D2B7BD157
:1033E000F6E7537E572B0BD1234B4FF47A721A809A
:1033F000224B1B6813F008036ED1214A13806BE047
:10340000A968490746D55A2B44D11E4B197819B1E2
:10341000187001221C4B4EE0D17E1C4B81F0010143
:10342000D176A9B3042246E0F4250020340200201E
:10343000601E002030020020380100201C0F0020F8
:10344000400200203C0100206E06002000007A446B
:1034500000C07F447207002082070020CDCC2342A9
:103460000000C842404B4C002C0B0020680000209C
:103470000A260020DC030020002600203C02002059
:10348000D40400208D0400208F0400208E0400202E
:10349000062210E05D2B00F01B835B2B00F01A83EB
:1034A0005E2B0AD1032216E3A72B40F06183AA4BBF
:1034B0001A7842F004021A700EE0562B01D109F07E
:1034C00083FDA64A1378002B00F01B83637E6F2BCD
:1034D00040F0118303F05EFCAB685B0731D5E37EFF
:1034E0009BB19F4B1B7858070FD59E4BBAF906200E
:1034F000B3F81A319A4208DD3B6813F0010304D196
:10350000994A32211180994AD3763B68D9030AD56A
:10351000974B1A782AB9974A127812B9924A3221EF
:10352000118001220CE0934B1A7852B18C4A127828
:1035300002F0040202F0FF011AB919708E4B012249
:103540001A70D6F80090002309F1750B3B6009F161
:10355000770698460BF1020303EB080113F80820E5
:103560004B7816F8010C9A420AD2314602F032FC2E
:1035700030B116F8023C01229A403B6813433B608D
:1035800008F10408B8F1A00F06F10406E2D17B4B64
:103590001B7843B13B68DFF8FC8113F0020F784ED3
:1035A00040F09A818FE109F21512019209F58B76AC
:1035B0009846019A16F8010C531C03EB080113F806
:1035C00008204B789A4228D2314602F003FC20B3FF
:1035D000B0786C4B013800EB400096F804B018440A
:1035E0004FF00C0CF3780CFB0BFC00935F4B03F1DA
:1035F0001C0909EB0C014A6882420ED0009A09F8B6
:103600000C2000228A60012202FA0BFB93F84C2066
:10361000486022EA0B0B83F84CB008F10608B8F1B9
:10362000480F06F10606C4D1574BDFF86C811E68BF
:10363000564B4FF00009D3F800B0D8F80030002BFB
:1036400000F038811978002900F03481D8F804207E
:10365000C2EB0B02002A0CDB0BF5FA72C8F804204F
:10366000012202FA09F294F84C0020EA020284F8DE
:103670004C2018F8040C5A780430C0B2002A40F0EC
:10368000E1803AF91020B5F8180100F1C80C624544
:1036900001DD9B7813E0C838824202DA9B785B42F6
:1036A0000DE0012303FA09F394F84C2022EA030306
:1036B00084F84C300BF5FA73C8F80430FAE094F84B
:1036C0004C2042FA09F2D20700F1F480002B304A74
:1036D000CCBF02200120013910700A2900F2E280DB
:1036E000DFE801F0060F1B28315C6E80929CA6007B
:1036F00032781344FA2BA8BFFA2323EAE37333701A
:1037000007E072781344642BA8BF642323EAE373B1
:103710007370304603F08AFCC4E0F27830461344FC
:10372000642BA8BF642323EAE373F370216D03F0D5
:1037300039FCB7E032791344642BA8BF642323EA31
:10374000E3733371AEE072791344642BA8BF642332
:1037500023EAE3737371A5E0720200206800002081
:103760000A260020601E0020740400201C0F002088
:103770008C0400208D0400208F04002004260020EB
:10378000440200202C3A0108840500205C1E002021
:103790008E0400203C0200203C0F0020616D4A781E
:1037A0001A44C82AA8BFC82222EAE2724A700A78DC
:1037B0001344C82BA8BFC82323EAE3730B7071E03E
:1037C000616DCA7A1A44C82AA8BFC82222EAE272E6
:1037D000CA728A7A1344C82BA8BFC82323EAE373AA
:1037E0008B725FE0616D4A7D1A44C82AA8BFC82267
:1037F00022EAE2724A750A7D1344C82BA8BFC82387
:1038000023EAE3730B754DE0626D91780B44C82B8E
:10381000A8BFC82323EAE373937043E0626D117B72
:103820000B44C82BA8BFC82323EAE373137339E002
:10383000626D917D0B44C82BA8BFC82323EAE373B4
:1038400093752FE0012A2DD13AF910009B784FF49F
:103850009662B0F5617F92FBF3F305DB40F633022D
:103860009042B8BF024601E04FF46172A2F5617266
:1038700092FBF3F3DBB2A74A581C0C29107011D14C
:1038800094F858209A420DD0A34A042B28BF022353
:103890000A2184F8583001FB0323A04A0633136041
:1038A00003F0DEFB012303FA09F394F84C201343E1
:1038B00084F84C3009F10109B9F1040F08F10C0842
:1038C0007FF4BBAE66E6AB68D80514D5944B1B6895
:1038D0001B689B68984770B1D8F800309B070AD5E1
:1038E000338813F001020CD18E4943F00103E265E5
:1038F00022660B8006E03388012223F00103338027
:1039000000E000223B68590710D57AB1328822F0D6
:10391000010102F0020289B292B2318052B9E2652D
:103920002266804A41F00201118003E0328822F0D1
:103930000202328032887C4912F0030F4FF01000EF
:1039400014BF48610861D8F8001011F00A0F21D0A7
:10395000D80609D554070AD442F004023280734ACB
:103960001088734A108002E022F004023280980628
:10397000328806D5540607D46A4842F040020280D5
:1039800002E022F040023280580603D5674A1088D0
:10399000684A10808A0640F18680674A1278940748
:1039A0007AD5664A1278042A76D913F4007C3288D4
:1039B00012D002F010039BB2002B74D1594922F0AF
:1039C000200242F010025E480A805E4A011D5370D8
:1039D00003F0F8FC022264E022F0100189B25805DD
:1039E00031802CD5584B594C1B685889B4F900309C
:1039F000002BB8BF5B42834209DAB4F90230002BD6
:103A0000B8BF5B428342ACBF0023012300E06346A2
:103A1000DB0714D502F0200292B2002A43D1494BB1
:103A20004B485A704B4B41F020011A685B6831805B
:103A3000011D0260436003F0C5FC012231E022F069
:103A4000300232803F4A53786BBB012151701A46D5
:103A50004149002050524149414C5052414904EBE8
:103A6000030C5052002119510232CCF80400CCF85A
:103A7000081004F1280C503443F80C1019519C44E0
:103A80001C44042ACCF80400CCF808106060A16043
:103A900003F11403DCD106E03388002223F0300365
:103AA0003380314B1A703B6813F4006F338814BFB6
:103AB00043F4807323F4807333806B79082B02D036
:103AC0000E2B40F09480338823F0400333808EE047
:103AD000012200E002225FFA82F808F1FF3385F844
:103AE000543703F03BFD08F02BFF0220282142460B
:103AF00003F02AF9F0E4B8F1000F02D07E2B3FF476
:103B0000E9AC637E972B7FF4CFAC184B4FF4C872AF
:103B10001A80E1E48E040020B025002084050020F6
:103B20002C0B002044020020000C0140D404002093
:103B30006E0500204010002072020020741000204A
:103B40008810002068000020780500205202002024
:103B50009010002078100020062600207C05002010
:103B6000800F0020800500209810002060040020B5
:103B70000022BB2B039201D1022303E0B72B04D117
:103B80004FF6FE73ADF80E300AE0BE2B01D10223D2
:103B900004E0BD2B7FF4A0AC4FF6FE73ADF80C3003
:103BA0003368BDF80C10B3F854200A44A3F854202D
:103BB000BDF80E10B3F856200A44A3F8562009F0B9
:103BC00003FA0023A37687E40A4B00220021DA657A
:103BD0001A66C3F8DC20C3F8E020C3F8E420C3F879
:103BE000E810C3F8EC10C3F8F010FFF799BB05B06C
:103BF000BDE8F08F1C0F0020664B2DE9F04FB3F9A4
:103C00000600654B87B01D682B8998420EDBB0F526
:103C1000FA6FAF7907DAC21A5743A3F5FA6397FB35
:103C2000F3F7643703E0C7F1640700E064275B4BF8
:103C30005B4AB3F8181193F9EC3016685B420491B3
:103C40009BB20021059334460A46524BDDF810C062
:103C5000CB5E40F2E63E0393CCEB030303F2F31C8E
:103C6000F44503D8002BB8BF5B4201E04FF4FA7370
:103C7000022ADFF8388131D096F85DE1BEF1000FFD
:103C800004D07345CCBFCEEB030300234FF0640E8A
:103C9000DFF814A193FBFEFC6FF0630B3AF81C9065
:103CA0000BFB0C3B0CF1010C3AF91CA00FFA89FC40
:103CB000CCEB0A0C0CFB0BFC9CFBFEFCCC4428F868
:103CC00001C095F804C003FB0CFC364B9CFBF3F3DE
:103CD00073449BB27B4393FBFEFE1BE096F85EE1D0
:103CE000BEF1000F04D07345CCBFCEEB030300231D
:103CF000DDF814C003FB0CFEA8F804E095F805E01D
:103D0000002BB8BF5B4203FB0EFE264B9EFBF3FE6F
:103D10000EF1640EB31893F80480DFF894C00EFB24
:103D200008F8642398FBF3F802F80C8094F80E90DE
:103D30000CF103080EFB09F999FBF3F902F808905E
:103D400094F818800CF1060C0EFB08FE9EFBF3F3B2
:103D500002F80C30DDF80CE0049B9E45DFF84CE0E7
:103D600004DA3EF801305B422EF801300132032ABA
:103D700001F1020104F101047FF467AF074DB5F8CA
:103D80001A31984216DBB0F5FA6FA8BF4FF4FA600B
:103D900011E000BF6E06002084050020601E002098
:103DA000DC0300200CFEFFFF101000205202002058
:103DB0001E1000201846C01A4FF47A725043C3F503
:103DC000FA63B0FBF3F36427A54C93FBF7F204EB23
:103DD00042016FF0630000FB0233098B04EB4202E7
:103DE000B2F91A000AB2821A534393FBF7F7394427
:103DF0009C4F9D4E3B88AEF806105A0640D59B4B13
:103E00001888238EC01A00B209F03EFB92A3D3E9B2
:103E1000002309F09FFB09F0F7FD80460DF040F903
:103E2000814640460DF0B0F98046B6F9020009F02F
:103E3000F5FE8246B6F9000009F0F0FE49468346D9
:103E400009F040FF414603465046009309F03AFF0F
:103E5000009B0146184609F02BFE0AF0F9F8494686
:103E60003080504609F02EFF41468146584609F001
:103E700029FF0146484609F01DFE0AF0E9F8708066
:103E8000AA6840F602031340002B51D0784B06215C
:103E90001E88636B1E4494F8383066630133DBB2CE
:103EA000B3FBF1F084F8383001FB103313F0FF0F4F
:103EB0003ED1930706D502F003FF02F0EBFE684BFC
:103EC00083F83900AB68180530D56A4BE16B5A7B33
:103ED000694B33F81200082391FBF3F280B28A1A7F
:103EE0000244E26392FBF3F292B240F6E4435A4397
:103EF000624B40F6FF71B2FBF1F219684FF47A732E
:103F0000C8888988121A5A4392FBF1F25643D4E9C1
:103F1000120196FBF3F3C01841EBE3712264C4E98C
:103F20001201574A00230AF0D9F820650023636381
:103F300054494B4A0B6894F8399013F4805318BFD6
:103F4000012382F85430AB688A4613F4807F4E4ECA
:103F50002CD0DFF848813078D8F80030C0F38000EA
:103F60001B685B68984760B1012384F85530D8F826
:103F700000301B68DB68984718B1394B022283F880
:103F80005520D8F800301B689B68984728B13378D3
:103F900059075CBF022384F85530D8F800301B68FD
:103FA0009B69984710B1002384F85530374B1A6845
:103FB00092060DD5DAF8003013F4C06F05D0344BFB
:103FC0001B789B0701D4012300E0002384F85630BE
:103FD00094F85520224B022A02D14C204E211EE09B
:103FE000012A06D153204D214C220B4606F02EFF0C
:103FF0002BE093F85620012A03D1532001464E228C
:1040000006E093F85420012A04D1532001460246C9
:104010004D23EBE7B9F1000F04D053204D210A46A0
:104020004423E3E73A88170603D553204D2102467F
:10403000DBE7184A12781AB1192001F08DFE04E06E
:10404000484683F85790FEF71AFB3378580727D570
:10405000114B08225A617EE0399D52A246DF913F02
:10406000101000204402002052020020D40400203E
:10407000F00400207207002082070020100F0020AB
:10408000407E0500400200200A2600203C0200205D
:10409000720200208E040020000C0140300B002032
:1040A000DAF80020D10703D4B54943F001030B70BF
:1040B000B4490B6813F0020302D0B3490988A1B9CF
:1040C000B249098801B12BB9B14B1B88003318BF25
:1040D000012300E0012343B1AE4BD96881F0080110
:1040E000D960337823F001033370AB4B1B781F0783
:1040F00003D4337823F001033370D00203D533782F
:1041000023F0010333703378A44A13F0010F05D074
:104110000023A3659F4B082119610BE0A16D136873
:1041200041B99F4903F5F42303F590738B65994BCF
:1041300008215961A36D12686BB1D21A002A0ADBFB
:10414000944A03F5F423D16803F5907381F00801D4
:10415000D160934A9365934B1B780BB105F016FB26
:10416000914B1B781BB104F063F900F01ABC8F4F20
:1041700097F84A30012B40F00F843B68E7652366CF
:10418000206EDFF81CA2FEF795FA002800F0FE83EF
:10419000DAF86000FEF789FADAF85C3093F8482024
:1041A000DAB9B0F124014A424A4183F84820002A92
:1041B000E6D133785A07E3D4232802D104F038F942
:1041C000DEE77B4B1B681B7D8342D9D1794A7A4B52
:1041D0001A607A4A7A4BDA60D2E7012A04D14D2874
:1041E00014BF00220222CDE3022A04D13C2814BFCE
:1041F00000220322C6E3032A0AD140284FF000021E
:1042000000F2C0831A71DA71587198710422B9E30F
:10421000042A06D19A7983F8490050409871052202
:10422000B0E3052AACD159791A799142997906D926
:1042300041409971511C197113441872A0E78142D1
:1042400040F09E8393F8490005F0DCFC002840F024
:104250009383E36DDFF848B193F84930C82B00F041
:10426000E08045D82D2B00F0168325D8252B00F0B3
:10427000F38206D8212B00F03E82232B00F07981B7
:10428000B0E3292B00F0F3822B2B00F0FC82272BCC
:1042900040F0A883002002F0E7FD02F0A3FDDFF864
:1042A00024A1AAF8E60002F09DFDAAF8E80002F0B9
:1042B00099FDAAF8EA005CE3332B00F000830DD8E7
:1042C0002F2B00F01583312B40F08C83DFF8F4A006
:1042D000C02002F0C9FD0AF1800B21E3412B00F060
:1042E000F682442B00F03F83352B40F07B8364E162
:1042F000D02B00F0118269D8CC2B00F08C8106D82D
:10430000C92B00F04382CA2B00F0A9806AE3CE2BB0
:1043100000F02E8240F20B8202F064FD02F062FD9A
:10432000DFF8A0A0DFF8A0B0AAF8D00002F05AFD94
:10433000AAF8D20002F056FDDBF80080AAF8D400FB
:1043400002F050FDA8F8A80102F04CFD02F054FD67
:10435000DBF800B002F046FD00EB80004000ABF857
:10436000520002F035FD8AF8040102F031FD8AF8AE
:10437000060102F02DFD8AF8050102F029FDF8E2A0
:104380000A2600203C020020F825002060040020BE
:1043900000260020000C014072020020F4250020BD
:1043A00010100020A70E0020042600206409002021
:1043B00048090020EFBEADDEF04F00200400FA05F2
:1043C00000ED00E0601E0020DC030020D42B00F094
:1043D0005A8108D8D22B11D040F2FC8102F002FDA4
:1043E000D74B1880C5E2EF2B2AD0FA2B00F0CA81F8
:1043F000D62B40F0F7824FF0000A39E1337803F012
:10440000040303F0FF0A002B40F0B38202F0E0FC4B
:10441000CC4B022883F8540740F2848183F854A7D8
:1044200080E14FF0000A02F0DDFCC74B23F80A00E0
:104430000AF1020ABAF1100FF5D10122C34B9FE134
:10444000DFF80CA3DAF800B002F0CCFCABF85600B1
:10445000DAF800A002F0C6FCAAF8540089E2BC4BCE
:104460004FF0000A1A689B461278022A66D1DBF8E0
:10447000008002F0ADFC0AF1080208EB820809F0A6
:10448000C9FBB44909F0D2FCC8F80400DBF800808D
:1044900002F09EFC0AF10A0208EB820809F0BAFB5E
:1044A000AD4909F0C3FCC8F80800DBF8008002F051
:1044B0008FFC0AF10E0208EB820809F0ABFBA7495A
:1044C00009F0B4FC0AF1010ABAF1030FC8F80400BC
:1044D000CDD1BAF1070FDBF8008016D102F078FCDD
:1044E00009F098FB9B4909F0A1FCC8F84800DBF8EB
:1044F000008002F06DFC09F08DFB964909F096FCF6
:10450000C8F84C0002F064FC12E002F061FC08EB19
:104510000A031871DBF8008002F05AFC08EB0A036A
:104520009873DBF8008002F053FC08EB0A0318765E
:104530000AF1010ABAF10A0FCBD11AE2DBF80080C6
:1045400002F046FC08EB0A031871DBF8008002F069
:104550003FFC08EB0A039873DBF8008002F038FC9C
:1045600008EB0A030AF1010ABAF10A0F1876E5D13D
:10457000FFE102F02DFC272823D8754B00F11C0B1E
:104580001B6803EB8B0B02F023FC754B0BF1050A48
:1045900003F58A72197A814203D00C339342F9D120
:1045A0000FE01B788BF8053002F012FC8AF801004E
:1045B00002F00EFC8AF8020055E002F009FC0B281C
:1045C00004D90120002102F031FCD2E14FF0060BAA
:1045D0000BFB00F05E4B00F588701B6803EB000BD3
:1045E00002F0F6FB0328ECD88BF80A0002F0F0FB8F
:1045F0008BF8050002F0ECFB8BF8060002F0E8FBFC
:104600008BF8070002F0E4FB8BF8080002F0E0FBF7
:104610008BF80900ADE1DFF854A1DAF800B002F040
:10462000D7FB8BF80000DAF800B002F0D1FB8BF872
:104630000100DAF800B002F0CBFB8BF80400DAF8E6
:1046400000B002F0C5FB8BF80500DAF800B002F00C
:10465000BFFB8BF80600DAF800B002F0B9FB8BF86C
:104660000200DAF800A002F0B3FB8AF8030080E150
:1046700002F0B8FB3B4B23F80A000AF1020ABAF138
:10468000100FF5D175E14FF0000BDFF8C4A00BF16E
:104690002C09DAF800204FEAC908019202F0A2FBC7
:1046A000019A4244D080DAF80020019202F09AFB8D
:1046B000019A4244108102F095FB072803D8DAF8EA
:1046C000002042445073A0F57A7292B2B2F57A7F1C
:1046D00004D8DAF8002002EBC9025081DAF800A011
:1046E00002F076FB0BF1010B0AEBC903BBF1080FDB
:1046F0001873CAD13DE14FF0000A154BD3F800B052
:1047000002F066FB0BEBCA030AF1010ABAF1080FCB
:1047100083F86D01F1D12CE133785B0700F1298139
:1047200003F08EFF02F01AFF08F00AF921E1337856
:10473000580700F11E810C4B4FF4C8721A8018E123
:104740006E050020601E00206E0600202C02002056
:10475000DC030020000020410000C84200007A4431
:10476000503A0108980600206004002084050020CB
:104770003378590700F1FD809E4B1A7842F004020D
:104780001A70F6E033785A07CCD52BE102F020FB03
:10479000984B1A7810B142F0020201E022F00202B6
:1047A0001A7002F015FB84F8640002F025FBA06685
:1047B00002F022FBE06602F015FBA4F8700002F0A4
:1047C00011FB94F87430A4F8720043F0020384F8EB
:1047D0007430CEE002F0FCFA009002F00DFB029083
:1047E00002F00AFB019002F007FB824602F0FAFA9F
:1047F00002F0F8FA02F0ECFA009B0299019AABB9C8
:104800007D4BCBF87C201A88CBF8781022F0100270
:104810001A80784B1A7842F001021A70BAF1000F30
:1048200000F0A780754BC3F800A0A2E0102B40F069
:10483000A080734BC3F88010C3F88420BAF1000F36
:1048400002D06E4AC2F800A06E480222011D83F811
:10485000882002F0B7FD8CE0002002F005FB002369
:10486000AB6002F0C9FAAB681843A86081E0002091
:1048700002F0FAFA02F0B6FAA5F8080102F0B2FA6C
:10488000A5F80A0175E0002002F0EEFA02F0A0FAA5
:104890005D4B58716DE0002002F0E6FA02F098FAE4
:1048A00085F8160102F09EFAA5F81C0102F09AFAAA
:1048B000A5F8180102F096FAA5F81A0159E00020AF
:1048C00002F0D2FA02F084FA85F81E0151E00020CD
:1048D00002F0CAFA4FF0000A02F07AFA4A4B534447
:1048E0000AF1010ABAF1080F83F80E01F4D140E091
:1048F000002002F0B9FADFF810A10AF1400B02F033
:1049000071FAAAF8D40102F063FA8AF8D60102F02B
:104910005FFA0AF1040A8AF8D301DA45EFD128E0F8
:1049200002F060FA00F03F00AAF8560102F05AFACD
:10493000BAF85621800100F4F8631343AAF85631FF
:1049400002F046FA00018AF8540102F041FA9AF89E
:10495000543100F00F0018438AF854010AF1040A98
:10496000DA45DDD105E0002002F07EFA01238BF864
:104970008930002002F078FAE36D987902F045FA68
:10498000E36D002283F84820FFF7FABB9AF88930DC
:1049900013B11E4A1E4BDA601E4A4C3797427FF411
:1049A000E7AB1D490B689B0616D51C4BD4F88C1041
:1049B0001B68134A591A00290EDB92F86410042967
:1049C0000AD903F5123303F5F873C2F88C30144B8F
:1049D000DA6882F01002DA60124B9B683BB1124831
:1049E000984704E00120002102F020FAC4E707B054
:1049F000BDE8F08F7202002044020020480200202F
:104A00001010002090100020601E00200400FA0505
:104A100000ED00E0FC0900203C020020F42500200D
:104A2000000C0140E0030020A0100020AFF3008044
:104A30002DE9F04F974B91B01B68BBB9964C23788A
:104A4000013B042B00F20487DFE813F01D061D066E
:104A50001D06F206D8062068FDF727FE8F4B044698
:104A60001B681B784BB1012B00F0ED80894C20684E
:104A7000FDF720FE0028EED1E0E72428884D0CD079
:104A800006D80A2800F08E800D2800F08B80C6E042
:104A90002A2806D02C2804D0C1E02B706B70AB7094
:104AA000CEE06A782E782A4400217D4BD170EEB991
:104AB000DA789E74472A19D11A79502A16D15A7970
:104AC000472A07D19A79472A04D1DA79412A01D1B4
:104AD00001229A746A79724B522A07D19A794D2A27
:104AE00004D1DA79432A04BF02229A74AB7C6C4F5A
:104AF000012B02D0022B36D049E0B31E072B46D83B
:104B0000DFE803F0040810141C27452C01F09EFB7D
:104B100068613CE0EA78624B532A38D15A695242C4
:104B20005A6134E001F092FBA86130E0EA785C4B16
:104B3000572A2CD19A6952429A6128E0EB78302B9F
:104B4000584B1A788CBF42F0020222F002021A700F
:104B50001DE0002001F0D4FB287718E0002001F0D0
:104B6000CFFBE88313E0072E06D0082E0FD10120DB
:104B700001F0C6FB78840AE0012001F0C1FB41F29C
:104B8000184358434FF47A72B0FBF2F33B8401367A
:104B900000232A2C424A2E706B704CD1012182F8DE
:104BA00024104DE095F82430002B34D03C4BDB78BA
:104BB000402B04D9A3F137021201D2B202E01B014B
:104BC00003F0F0022B79A978402B8CBF373B303BA8
:104BD000DBB21344DBB29942314A1BD1937C012BE7
:104BE00008D0022B16D1118C2F4B528C19802F4BD1
:104BF0001A800FE02B4909788E070CD52C49506993
:104C0000086090694860107F2A490870D18B2A4A51
:104C1000118000E00023002285F8242010E06B784A
:104C20001F4A0E2B03D8591C13445170DC7095F8A1
:104C300024301B4A1BB991784C40947000E000234B
:104C400003F0010361E1164B002193F82520082AA7
:104C500000F25A81DFE802F00B0514324353718DE4
:104C60009A00622801D1022207E083F82510B52CB2
:104C700040F04A8193F82520013283F8252043E152
:104C8000032283F8252083F8260083F8270083F881
:104C9000280039E1740B0020540B0020700B002019
:104CA000A81000207202002082100020D21B0020D9
:104CB000781000207410002080100020042283F857
:104CC000252093F8272093F828100244D2B283F8C5
:104CD00027200A4483F8282083F8290014E10522BC
:104CE00083F8252093F8272093F828100244D2B2A5
:104CF00083F827200A4483F82820588504E10621F8
:104D000083F8251093F8271093F828002144C9B29E
:104D100083F82710014483F82810598D6C4A01EB61
:104D20000424A4B2B4F5007F89BF002154855185C5
:104D300082F8251000229A85E6E093F8272093F860
:104D400028100244D2B283F827200A4483F828208E
:104D50009A8DC72A03D85E49114481F83000013288
:104D600092B29A855B8D934240F0CE800722584BD9
:104D700083E7082283F8252093F82730834200F048
:104D8000C380534A002382F82530BEE083F8251003
:104D900093F828104E4A814240F0B68092F82910CC
:104DA000062947D004D8022912D003292CD0ABE021
:104DB00012295CD0302940F0A78092F83410454A7F
:104DC000102988BF102111701078434900225CE03F
:104DD0004249506B4860906B0860116C4FF47A70D8
:104DE00091FBF0F13E48018092F8F8103D4A19B16C
:104DF000117841F0020102E0117821F002011170F6
:104E0000012283F8F92055E092F8351011F00101E4
:104E100005D092F83420D41E6242624100E00A4676
:104E200083F8F820002A45D12E4A117821F002019A
:104E300011703FE092F83B1011F0010105D092F89B
:104E40003A20D01E4242424100E00A4683F8F82050
:104E500022B9244A117821F00201117093F85F10F1
:104E6000214A1170B3F85C10204A118022E0516C85
:104E70001F480180916C42F2107091FBF0F11D48C7
:104E80000180012182F8FA1014E0824201F10C0144
:104E900010DA11F8045C184C155511F8035C174C26
:104EA000155511F8015C164C15550D78154C155516
:104EB0000132EAE793F8F930054A2BB392F8FA3059
:104EC00013B3002382F8F93082F8FA3001231CE092
:104ED000A8100020D41B0020D8100020781000203B
:104EE000801000207202002074100020C8000020F2
:104EF00082100020D21B0020D51B0020E51B0020C3
:104F0000F51B0020051C00200023002B3FF4AEAD54
:104F1000A54BA64E9A68DA6032689A60A44B1A686C
:104F200042F020021A60A34B1A78012A0CBF00221B
:104F300001221A70A04B1A7891077FF597AD9F490F
:104F4000097804297FF692AD9D49097801F00401A2
:104F500001F0FF0011B922F001021A701B78964F80
:104F600013F0010F974C984D11D180B19B070ED5CE
:104F7000964B28686A6818605A60FDF7FDFF944BED
:104F80001B88A4F8FC303B7843F001033B7094F895
:104F9000FE304FF00509013393FBF9F909EB89095C
:104FA000C9EB03098B4B8C481B7884F8FE90059362
:104FB000831D03EB890907900023DFF80CE2874A81
:104FC00053F80E00864F985090FBF7FC02F108074B
:104FD00043F807C0834F03EB0E0107FB0C0742F2B7
:104FE000107097FBF0F00691079980B221F8020F3C
:104FF00002F1100A03EB830B0490079153F80A00A7
:1050000059F80B1049F80B70C1EB000808EB0700CA
:10501000734F4FF0050843F80A0090FBF8F007FBC8
:105020000C000599183201299850774608D1DDF80F
:1050300010E0AEF10202B2F5797F9CBF06990860DC
:105040000433082BB9D1DFF87C813068D8F84C31B3
:10505000C01A08F0DFFD644908F0E8FE33684FF03D
:105060007E51C8F84C31814608F0CAFF10B94FF0A4
:105070007E5000E048460CAAC4F85001534B009201
:105080000DAA019297E803000CCBFDF733FF0C9BB0
:1050900056496422B3FBF2F30D980B80544B90FBFE
:1050A000F2F21A80444A474E127812F0010208BF09
:1050B0001A8098F8543108BF0A80002B3AD0D6F8ED
:1050C00050114FF07E5008F0B1FED6F858318146AD
:1050D0002868C01A08F0A2FD494608F0F3FD08F060
:1050E000B7FFD6F85C211FFA80FA68680FFA8AFACF
:1050F000801A08F093FD3F4B196808F0E3FD49461C
:1051000008F0E0FD08F0A4FFB6F9623100B2C21861
:10511000B6F960310221534492FBF1F293FBF1F3B3
:1051200092B29BB2A6F86621A6F86431A6F8622175
:10513000A6F86031012388F854312F4B79681B8819
:10514000386803F030031F4D1F4EC8F85C11C8F8D3
:105150005801002B3FF48AAC05F5B873009305F5B0
:10516000BA730193D5F86821D5F86C31FDF7C2FE0A
:105170007368D5F86C01C01A08F050FD1D4B196812
:1051800008F0A0FD08F064FFD5F868313268C5F872
:105190007C019B1AC5F878310E4B1B78012B2DD062
:1051A000022B00F0F98061E4540B00205C1E00200B
:1051B0003C020020841000207202002074100020A5
:1051C0000A260020A8100020781000208810002057
:1051D000D404002098100020A6110020D411002033
:1051E00080969800806967FF00007A44801D002047
:1051F000821D00206C00002044020020D5F8807140
:10520000D5F89C410497D5F8907104F100400597BA
:10521000D5F89471D5F85061079708F019FF8046CA
:10522000204608F015FF904BD5F898511B688F4C1D
:105230000695089009930025DFF850A25AF81570DA
:10524000AAF11403384635F8039008F0E7FC0499F6
:1052500008F038FD08F0FCFEC9EB000080B20AF14E
:10526000280A25F80A000FFA80FA504608F0D6FC02
:10527000059908F027FD08F0EBFE1FFA80FB0AEB0A
:10528000070008F0CBFC079908F01CFD314608F038
:1052900019FD216808F00EFC08F0DAFE404505DB38
:1052A000DDF820E07045A8BF704600E0404608F0F9
:1052B000B5FC206008F0CCFE58441FFA80FB606803
:1052C00009F13109381A08F0A9FC314608F0AEFDA1
:1052D0000999206184468878D4F808A0CDF80CC0DC
:1052E00008F098FC08F0E2F85DA3D3E9002308F089
:1052F00031F902460B4600205D4908F055FA08F0E6
:1053000083FB314608F0D6FB0146304608F08EFD9F
:10531000DDF80CC0034651466046039308F0C8FB15
:10532000039B0146184608F0CDFC0146504608F0A4
:10533000C1FB1FFA89F9B9F1620F0146206167606C
:10534000A0600ED9069808F0BDFC08F081FE494B1C
:10535000B0F5FA6FA8BF4FF4FA609842B8BF18468C
:1053600000E00020834440F6B8330FFA8BFB9B45E6
:10537000A8BF9B46404B0A229B45B8BF9B466A4349
:105380003E4B54F8141B25F803B03D4B0235042D59
:10539000D1503FF46BAB4FE7334BD5F870B11F687A
:1053A000B5F8A461B7F808904FEA5B03994528BFA8
:1053B000994633B2994502DC1FFA89F90BE031496D
:1053C000D5F8500108F07EFC08F042FE30441FFA88
:1053D00080F9A5F8A491D8F87451D8F8A861AE1B4B
:1053E0003046FDF737FE0028D8BF404241F2931304
:1053F0009842CCBF00200120002849D0304608F058
:105400000DFC214908F05EFC0BF0BEFE0646584636
:1054100008F000FC0146304608F054FC08F018FE85
:1054200080B240F6B83203B29342A8BF1346124A84
:10543000A8F8AC019342ACBFEB18AB1848F6A042F9
:10544000934203DDA3F50C43A03B04E0002BBCBF5B
:1054500003F50C43A033C8F8B0311BE0AFF3008074
:10546000182D4454FB21194078050020A80F002076
:105470000000F03F30F8FFFF48F4FFFF80050020F8
:10548000D00F00200000C842D3023739201200207C
:10549000C8F8B051D4F8B021C2F50C5028300492AD
:1054A00008F0BCFBA44908F00DFC05460BF0F8FD24
:1054B0000F9028460BF068FED4F8C051D4F8B431F0
:1054C000D4F8B8E10E9005F100400793CDF828E03C
:1054D00008F0BEFD0590284608F0BAFDD4F85081CA
:1054E000D4F8BC410B900994944C0025484608F030
:1054F00095FB0EAB53F8151008F0E4FBDFF874A22F
:1055000006463AF9050008F089FB0146304608F0E6
:10551000CFFA08F09DFD8A4B06B2B6F57A7FA8BF98
:105520004FF47A769E42B8BF1E46B0B20AF13C0AEA
:1055300025F80A0000B208F071FB0799824608F0CE
:10554000C1FB08F085FD80B208900A99504608F02A
:10555000B9FB414608F0B6FB216808F0ABFA08F049
:1055600077FD0599884204DB0B9A9042A8BF10464C
:1055700000E0059808F052FB824620606068143411
:10558000301A08F04BFB414608F050FC54F80C3C34
:1055900044F8040C8446B8780693CDF80CC008F0A3
:1055A00039FB07F083FF62A3D3E9002307F0D2FFA2
:1055B00002460B460020634908F0F6F808F024FA8A
:1055C000414608F077FA0146404608F02FFCDDF826
:1055D0000CC0034606996046039308F069FA039BE2
:1055E0000146184608F06EFB0146069808F062FA7C
:1055F00044F8106C014644F8040C44F80C0C09986B
:1056000008F060FB08F024FD089E0644504608F0B0
:105610001FFD304440F6B83300B29842A8BF184688
:10562000494B0A229842B8BF18466A43474BE85292
:10563000474B0235042D42F803A07FF457AF3B7966
:105640002BB104986422434B90FBF2F21A803B8802
:10565000414C9B450ED9D4F8A831D4F87401C01A36
:10566000FDF7F8FC42F210730028B8BF40429842A0
:105670007FF7FCA9394B01221A70B4F8FC20354B96
:105680001A80FFF7F3B9364A116890460F7817B1C0
:10569000012F0DD0AFE0012B00F2AD806278314BCD
:1056A00003EB0213304A59681068FCF7F9FF9FE0DA
:1056B0002D4E3068FCF7EFFFB146002800F09B80CC
:1056C00023782A4D022B29D0032B55D0012B40F0F3
:1056D0009280274B1F686B69FB1A632B40F28B800B
:1056E0002B69042B18D8DFF87C80306808EB031393
:1056F0005968FCF7D5FF6B78366808EB03139D6893
:1057000015F8011B19B13046FCF7E6FFF8E72369ED
:105710006761013323616EE002206AE06A78114B11
:10572000306803EB02135968FCF7BAFF032060E00E
:10573000182D4454FB211940D3023739D00F0020D3
:1057400018FCFFFF0000F03F48F4FFFF8005002039
:10575000A80F00206E050020A8100020981000203F
:10576000700B0020C4340108740B0020540B00207F
:105770005C1E00200C1200202B7E03B92F76227EA7
:10578000354B012A14D11A697B2A0DD8D8F800307C
:105790009B782BB9314BD9F80000995CFCF79CFF42
:1057A00023690133236103E000221A6102221A7681
:1057B000227E294B022A18D11A690F2A13D8D8F849
:1057C0000030997859B95B78244903EB03130B44F3
:1057D0001A44D9F8000092F87D10FCF77DFF236988
:1057E0000133236101E003221A76237E022B02D9C2
:1057F000042000F0E1FA0023636029E063680522D9
:1058000001336360637801200133DBB2B3FBF2F252
:1058100002EB82029B1A6370114B00221B68A3608B
:10582000104B1A70104B1A7822F002021A700DE019
:105830000B4B1A68A368D21A40F6C4139A4207D9D0
:105840000A4B05201A6822F020021A6000F0B4FA10
:1058500011B0BDE8F08F00BF540B0020643B01087D
:105860005C1E002074100020720200203C02002008
:1058700070B50E46202115460BF017FA0446B8B154
:10588000441C20460BF073FAB0F5617F05DB40F64F
:1058900034039842A8BF184601E04FF46170192301
:1058A000A0F5617090FBF3F030702B7801332B7012
:1058B000204620210BF0F9F90446B8B1441C2046DB
:1058C0000BF055FAB0F5617F05DB40F634039842E2
:1058D000A8BF184601E04FF461701923A0F561706C
:1058E00090FBF3F070702B7801332B70204670BD65
:1058F00070B586B005460BF0E5F9C0B208BB0446AA
:1059000006236343444A03F588731268192013443D
:10591000591D4D789A7A454305F561755B79009577
:105920008D78684300F561700190C878029009791C
:105930003A4803912146013405F0BAFB0C2CDFD123
:1059400068E028460BF013FA0B285FDC062670434C
:10595000314B00F588701E68202106440023681C26
:105960008DF817300BF0A1F9741D054658B1451C90
:1059700028460BF0FCF9032805D89DF81730607114
:1059800001338DF81730284620210BF08EF905469B
:1059900058B1451C28460BF0EAF90D2805D870715E
:1059A0009DF8173001338DF817302846611C0DF132
:1059B0001702FFF75DFF20210BF077F9054658B17C
:1059C000451C28460BF0D3F90C2805D89DF8173054
:1059D000E07001338DF81730284620210BF065F96F
:1059E00050B101300BF0C3F90D2805D89DF81730E0
:1059F000207101338DF817309DF81730062B09D030
:105A00002046002106220BF01CF903E004480C217B
:105A100005F04EFB06B070BDDC0300209C4F010872
:105A200003500108F0B585B007460BF04BF9C0B242
:105A3000E0B90446324B04F11C021B68192003EB49
:105A40008203591D8D785A79454305F561759B7917
:105A50000095C978484300F56170019021462948B6
:105A6000013405F025FB282CE4D146E038460BF044
:105A70007EF927283DDC224B00F11C061B68781CB0
:105A800003EB8606202100238DF80F300BF00DF973
:105A9000751D044658B1441C20460BF068F91528C2
:105AA00005D870719DF80F3001338DF80F30204606
:105AB00020210BF0FAF8044658B1441C20460BF0A4
:105AC00056F90D2805D89DF80F30687001338DF810
:105AD0000F302046A91C0DF10F02FFF7C9FE9DF8FB
